{
  "_format": "hh-sol-artifact-1",
  "contractName": "Storage",
  "sourceName": "contracts/Storage.sol",
  "abi": [
    {
      "anonymous": false,
      "inputs": [
        {
          "indexed": false,
          "internalType": "string",
          "name": "msg",
          "type": "string"
        },
        {
          "indexed": false,
          "internalType": "string",
          "name": "_hash",
          "type": "string"
        }
      ],
      "name": "hashGet",
      "type": "event"
    },
    {
      "anonymous": false,
      "inputs": [
        {
          "indexed": false,
          "internalType": "string",
          "name": "msg",
          "type": "string"
        },
        {
          "indexed": false,
          "internalType": "string",
          "name": "_hash",
          "type": "string"
        }
      ],
      "name": "hashUpdated",
      "type": "event"
    },
    {
      "inputs": [],
      "name": "getHash",
      "outputs": [
        {
          "internalType": "string",
          "name": "",
          "type": "string"
        }
      ],
      "stateMutability": "nonpayable",
      "type": "function"
    },
    {
      "inputs": [
        {
          "internalType": "string",
          "name": "hash",
          "type": "string"
        }
      ],
      "name": "updateHash",
      "outputs": [],
      "stateMutability": "nonpayable",
      "type": "function"
    },
    {
      "inputs": [
        {
          "internalType": "address",
          "name": "",
          "type": "address"
        }
      ],
      "name": "userToHash",
      "outputs": [
        {
          "internalType": "string",
          "name": "",
          "type": "string"
        }
      ],
      "stateMutability": "view",
      "type": "function"
    }
  ],
  "bytecode": "0x608060405234801561001057600080fd5b506109d0806100206000396000f3fe608060405234801561001057600080fd5b50600436106100415760003560e01c806392dea92214610046578063a6df7f0814610062578063d13319c414610092575b600080fd5b610060600480360381019061005b919061043b565b6100b0565b005b61007c600480360381019061007791906104e2565b610136565b604051610089919061058e565b60405180910390f35b61009a6101d6565b6040516100a7919061058e565b60405180910390f35b806000803373ffffffffffffffffffffffffffffffffffffffff1673ffffffffffffffffffffffffffffffffffffffff16815260200190815260200160002090816100fb91906107c6565b507f7aa3bd6967fe9c6695c908674e9e7769717a02faa18e900cf6321faf7808f8018160405161012b91906108e4565b60405180910390a150565b60006020528060005260406000206000915090508054610155906105df565b80601f0160208091040260200160405190810160405280929190818152602001828054610181906105df565b80156101ce5780601f106101a3576101008083540402835291602001916101ce565b820191906000526020600020905b8154815290600101906020018083116101b157829003601f168201915b505050505081565b606060008060003373ffffffffffffffffffffffffffffffffffffffff1673ffffffffffffffffffffffffffffffffffffffff1681526020019081526020016000208054610223906105df565b80601f016020809104026020016040519081016040528092919081815260200182805461024f906105df565b801561029c5780601f106102715761010080835404028352916020019161029c565b820191906000526020600020905b81548152906001019060200180831161027f57829003601f168201915b505050505090507f73f0dad0f8befa3b29d11f0f23d6cf10bb4aefc9626c8d537062287dfc84f9be816040516102d29190610965565b60405180910390a18091505090565b6000604051905090565b600080fd5b600080fd5b600080fd5b600080fd5b6000601f19601f8301169050919050565b7f4e487b7100000000000000000000000000000000000000000000000000000000600052604160045260246000fd5b610348826102ff565b810181811067ffffffffffffffff8211171561036757610366610310565b5b80604052505050565b600061037a6102e1565b9050610386828261033f565b919050565b600067ffffffffffffffff8211156103a6576103a5610310565b5b6103af826102ff565b9050602081019050919050565b82818337600083830152505050565b60006103de6103d98461038b565b610370565b9050828152602081018484840111156103fa576103f96102fa565b5b6104058482856103bc565b509392505050565b600082601f830112610422576104216102f5565b5b81356104328482602086016103cb565b91505092915050565b600060208284031215610451576104506102eb565b5b600082013567ffffffffffffffff81111561046f5761046e6102f0565b5b61047b8482850161040d565b91505092915050565b600073ffffffffffffffffffffffffffffffffffffffff82169050919050565b60006104af82610484565b9050919050565b6104bf816104a4565b81146104ca57600080fd5b50565b6000813590506104dc816104b6565b92915050565b6000602082840312156104f8576104f76102eb565b5b6000610506848285016104cd565b91505092915050565b600081519050919050565b600082825260208201905092915050565b60005b8381101561054957808201518184015260208101905061052e565b60008484015250505050565b60006105608261050f565b61056a818561051a565b935061057a81856020860161052b565b610583816102ff565b840191505092915050565b600060208201905081810360008301526105a88184610555565b905092915050565b7f4e487b7100000000000000000000000000000000000000000000000000000000600052602260045260246000fd5b600060028204905060018216806105f757607f821691505b60208210810361060a576106096105b0565b5b50919050565b60008190508160005260206000209050919050565b60006020601f8301049050919050565b600082821b905092915050565b6000600883026106727fffffffffffffffffffffffffffffffffffffffffffffffffffffffffffffffff82610635565b61067c8683610635565b95508019841693508086168417925050509392505050565b6000819050919050565b6000819050919050565b60006106c36106be6106b984610694565b61069e565b610694565b9050919050565b6000819050919050565b6106dd836106a8565b6106f16106e9826106ca565b848454610642565b825550505050565b600090565b6107066106f9565b6107118184846106d4565b505050565b5b818110156107355761072a6000826106fe565b600181019050610717565b5050565b601f82111561077a5761074b81610610565b61075484610625565b81016020851015610763578190505b61077761076f85610625565b830182610716565b50505b505050565b600082821c905092915050565b600061079d6000198460080261077f565b1980831691505092915050565b60006107b6838361078c565b9150826002028217905092915050565b6107cf8261050f565b67ffffffffffffffff8111156107e8576107e7610310565b5b6107f282546105df565b6107fd828285610739565b600060209050601f831160018114610830576000841561081e578287015190505b61082885826107aa565b865550610890565b601f19841661083e86610610565b60005b8281101561086657848901518255600182019150602085019450602081019050610841565b86831015610883578489015161087f601f89168261078c565b8355505b6001600288020188555050505b505050505050565b7f6e657720686173682076616c7565206973200000000000000000000000000000600082015250565b60006108ce60128361051a565b91506108d982610898565b602082019050919050565b600060408201905081810360008301526108fd816108c1565b905081810360208301526109118184610555565b905092915050565b7f73656e64657220676f7420686173680000000000000000000000000000000000600082015250565b600061094f600f8361051a565b915061095a82610919565b602082019050919050565b6000604082019050818103600083015261097e81610942565b905081810360208301526109928184610555565b90509291505056fea26469706673582212205ed2c1c7aeefa03c2a51ebc01d479629c1130637da29bbdaa41614e010dd623c64736f6c63430008180033",
  "linkReferences": {},
  "deployedLinkReferences": {}
}